{
  "_format": "hh-sol-artifact-1",
  "contractName": "ReuseLabel",
  "sourceName": "contracts/ReuseLabel.sol",
  "abi": [
    {
      "anonymous": false,
      "inputs": [
        {
          "indexed": false,
          "internalType": "string",
          "name": "productId",
          "type": "string"
        },
        {
          "indexed": false,
          "internalType": "address",
          "name": "issuer",
          "type": "address"
        },
        {
          "indexed": false,
          "internalType": "address",
          "name": "owner",
          "type": "address"
        },
        {
          "indexed": false,
          "internalType": "uint256",
          "name": "issueDate",
          "type": "uint256"
        }
      ],
      "name": "CertificateIssued",
      "type": "event"
    },
    {
      "anonymous": false,
      "inputs": [
        {
          "indexed": false,
          "internalType": "string",
          "name": "productId",
          "type": "string"
        },
        {
          "indexed": false,
          "internalType": "address",
          "name": "issuer",
          "type": "address"
        }
      ],
      "name": "CertificateRevoked",
      "type": "event"
    },
    {
      "anonymous": false,
      "inputs": [
        {
          "indexed": false,
          "internalType": "string",
          "name": "productId",
          "type": "string"
        },
        {
          "indexed": false,
          "internalType": "address",
          "name": "previousOwner",
          "type": "address"
        },
        {
          "indexed": false,
          "internalType": "address",
          "name": "newOwner",
          "type": "address"
        }
      ],
      "name": "CertificateTransferred",
      "type": "event"
    },
    {
      "inputs": [
        {
          "internalType": "string",
          "name": "",
          "type": "string"
        }
      ],
      "name": "certificates",
      "outputs": [
        {
          "internalType": "address",
          "name": "issuer",
          "type": "address"
        },
        {
          "internalType": "address",
          "name": "owner",
          "type": "address"
        },
        {
          "internalType": "string",
          "name": "productId",
          "type": "string"
        },
        {
          "internalType": "uint256",
          "name": "issueDate",
          "type": "uint256"
        },
        {
          "internalType": "bool",
          "name": "isValid",
          "type": "bool"
        }
      ],
      "stateMutability": "view",
      "type": "function"
    },
    {
      "inputs": [
        {
          "internalType": "string",
          "name": "productId",
          "type": "string"
        }
      ],
      "name": "getCertificate",
      "outputs": [
        {
          "components": [
            {
              "internalType": "address",
              "name": "issuer",
              "type": "address"
            },
            {
              "internalType": "address",
              "name": "owner",
              "type": "address"
            },
            {
              "internalType": "string",
              "name": "productId",
              "type": "string"
            },
            {
              "internalType": "uint256",
              "name": "issueDate",
              "type": "uint256"
            },
            {
              "internalType": "bool",
              "name": "isValid",
              "type": "bool"
            }
          ],
          "internalType": "struct ReuseLabel.Certificate",
          "name": "",
          "type": "tuple"
        }
      ],
      "stateMutability": "view",
      "type": "function"
    },
    {
      "inputs": [
        {
          "internalType": "string",
          "name": "productId",
          "type": "string"
        },
        {
          "internalType": "address",
          "name": "initialOwner",
          "type": "address"
        }
      ],
      "name": "issueCertificate",
      "outputs": [],
      "stateMutability": "nonpayable",
      "type": "function"
    },
    {
      "inputs": [
        {
          "internalType": "string",
          "name": "productId",
          "type": "string"
        }
      ],
      "name": "revokeCertificate",
      "outputs": [],
      "stateMutability": "nonpayable",
      "type": "function"
    },
    {
      "inputs": [
        {
          "internalType": "string",
          "name": "productId",
          "type": "string"
        },
        {
          "internalType": "address",
          "name": "newOwner",
          "type": "address"
        }
      ],
      "name": "transferCertificate",
      "outputs": [],
      "stateMutability": "nonpayable",
      "type": "function"
    },
    {
      "inputs": [
        {
          "internalType": "string",
          "name": "productId",
          "type": "string"
        }
      ],
      "name": "verifyCertificate",
      "outputs": [
        {
          "internalType": "bool",
          "name": "",
          "type": "bool"
        }
      ],
      "stateMutability": "view",
      "type": "function"
    }
  ],
  "bytecode": "0x608060405234801561001057600080fd5b50610d92806100206000396000f3fe608060405234801561001057600080fd5b50600436106100625760003560e01c8063142e15421461006757806367d4ddf61461007c5780636a63324d1461008f5780638b23d875146100a25780638f2b91ea146100ca578063ed0f2e75146100ee575b600080fd5b61007a6100753660046109d6565b61010e565b005b61007a61008a366004610a13565b610285565b61007a61009d366004610a13565b610455565b6100b56100b03660046109d6565b6106e0565b60405190151581526020015b60405180910390f35b6100dd6100d83660046109d6565b610739565b6040516100c1959493929190610ac1565b6101016100fc3660046109d6565b61080d565b6040516100c19190610b06565b6000808260405161011f9190610b64565b908152602001604051809103902060030154116101835760405162461bcd60e51b815260206004820152601a60248201527f436572746966696361746520646f6573206e6f7420657869737400000000000060448201526064015b60405180910390fd5b336001600160a01b031660008260405161019d9190610b64565b908152604051908190036020019020546001600160a01b0316146102165760405162461bcd60e51b815260206004820152602a60248201527f4f6e6c7920746865206973737565722063616e207265766f6b652074686520636044820152696572746966696361746560b01b606482015260840161017a565b600080826040516102279190610b64565b908152604051908190036020018120600401805492151560ff19909316929092179091557f7b87df98e4ff33f07a9fbda6f93a6b69c498e48444877da8c54a83d3a43aee5b9061027a9083903390610b80565b60405180910390a150565b60008251116102d65760405162461bcd60e51b815260206004820152601a60248201527f50726f647563742049442063616e6e6f7420626520656d707479000000000000604482015260640161017a565b6000826040516102e69190610b64565b90815260200160405180910390206003015460001461035b5760405162461bcd60e51b815260206004820152602b60248201527f436572746966696361746520616c72656164792065786973747320666f72207460448201526a1a1a5cc81c1c9bd91d58dd60aa1b606482015260840161017a565b6040805160a0810182523381526001600160a01b038316602082015280820184905242606082015260016080820152905160009061039a908590610b64565b9081526040805160209281900383019020835181546001600160a01b03199081166001600160a01b039283161783559385015160018301805490951691161790925582015160028201906103ee9082610c33565b50606082015160038201556080909101516004909101805460ff19169115159190911790556040517f9fe1c2a652f45331b1ebb6bf6344782dd1ea80b8c8aec7e0d362d0e43f53915590610449908490339085904290610cf3565b60405180910390a15050565b600080836040516104669190610b64565b908152602001604051809103902060030154116104c55760405162461bcd60e51b815260206004820152601a60248201527f436572746966696361746520646f6573206e6f74206578697374000000000000604482015260640161017a565b6000826040516104d59190610b64565b9081526040519081900360200190206004015460ff166105375760405162461bcd60e51b815260206004820152601860248201527f4365727469666963617465206973206e6f742076616c69640000000000000000604482015260640161017a565b336001600160a01b03166000836040516105519190610b64565b908152604051908190036020019020600101546001600160a01b0316146105ce5760405162461bcd60e51b815260206004820152602b60248201527f4f6e6c7920746865206f776e65722063616e207472616e73666572207468652060448201526a636572746966696361746560a81b606482015260840161017a565b6001600160a01b0381166106305760405162461bcd60e51b815260206004820152602360248201527f43616e6e6f74207472616e7366657220746f20746865207a65726f206164647260448201526265737360e81b606482015260840161017a565b600080836040516106419190610b64565b908152604051908190036020018120600101546001600160a01b03169150829060009061066f908690610b64565b90815260405190819003602001812060010180546001600160a01b03939093166001600160a01b0319909316929092179091557fdcafcbf6b079b09012d9ee12210c0cc1499a6c88d8694f94caff10e21271edcc906106d390859084908690610d29565b60405180910390a1505050565b600080826040516106f19190610b64565b9081526040519081900360200190206004015460ff16801561073357506000808360405161071f9190610b64565b908152602001604051809103902060030154115b92915050565b8051808201602090810180516000825292820191909301209152805460018201546002830180546001600160a01b0393841694929093169261077a90610baa565b80601f01602080910402602001604051908101604052809291908181526020018280546107a690610baa565b80156107f35780601f106107c8576101008083540402835291602001916107f3565b820191906000526020600020905b8154815290600101906020018083116107d657829003601f168201915b50505050600383015460049093015491929160ff16905085565b6040805160a081018252600080825260208201819052606092820183905291810182905260808101919091526000826040516108499190610b64565b90815260408051918290036020908101832060a08401835280546001600160a01b03908116855260018201541691840191909152600281018054919284019161089190610baa565b80601f01602080910402602001604051908101604052809291908181526020018280546108bd90610baa565b801561090a5780601f106108df5761010080835404028352916020019161090a565b820191906000526020600020905b8154815290600101906020018083116108ed57829003601f168201915b50505091835250506003820154602082015260049091015460ff16151560409091015292915050565b634e487b7160e01b600052604160045260246000fd5b600082601f83011261095a57600080fd5b813567ffffffffffffffff8082111561097557610975610933565b604051601f8301601f19908116603f0116810190828211818310171561099d5761099d610933565b816040528381528660208588010111156109b657600080fd5b836020870160208301376000602085830101528094505050505092915050565b6000602082840312156109e857600080fd5b813567ffffffffffffffff8111156109ff57600080fd5b610a0b84828501610949565b949350505050565b60008060408385031215610a2657600080fd5b823567ffffffffffffffff811115610a3d57600080fd5b610a4985828601610949565b92505060208301356001600160a01b0381168114610a6657600080fd5b809150509250929050565b60005b83811015610a8c578181015183820152602001610a74565b50506000910152565b60008151808452610aad816020860160208601610a71565b601f01601f19169290920160200192915050565b6001600160a01b0386811682528516602082015260a060408201819052600090610aed90830186610a95565b6060830194909452509015156080909101529392505050565b60208152600060018060a01b0380845116602084015280602085015116604084015250604083015160a06060840152610b4260c0840182610a95565b9050606084015160808401526080840151151560a08401528091505092915050565b60008251610b76818460208701610a71565b9190910192915050565b604081526000610b936040830185610a95565b905060018060a01b03831660208301529392505050565b600181811c90821680610bbe57607f821691505b602082108103610bde57634e487b7160e01b600052602260045260246000fd5b50919050565b601f821115610c2e57600081815260208120601f850160051c81016020861015610c0b5750805b601f850160051c820191505b81811015610c2a57828155600101610c17565b5050505b505050565b815167ffffffffffffffff811115610c4d57610c4d610933565b610c6181610c5b8454610baa565b84610be4565b602080601f831160018114610c965760008415610c7e5750858301515b600019600386901b1c1916600185901b178555610c2a565b600085815260208120601f198616915b82811015610cc557888601518255948401946001909101908401610ca6565b5085821015610ce35787850151600019600388901b60f8161c191681555b5050505050600190811b01905550565b608081526000610d066080830187610a95565b6001600160a01b0395861660208401529390941660408201526060015292915050565b606081526000610d3c6060830186610a95565b6001600160a01b039485166020840152929093166040909101529291505056fea2646970667358221220b13859534f3b0bdb36bda943d490f53e58c1fc3180d7f0a9cd9702bebb0d162b64736f6c63430008140033",
  "linkReferences": {},
  "deployedLinkReferences": {}
}